:0709F0000513696E746572C6
:0F09C900000000000000000000000000000022FD
:0B09E500E4F5207F071209D88F2022C4
:0709F8007D707F270209B8A2
:10098000C2B4D2B3C2B27B007A0079137512057F6C
:10099000301208FA7B007A0079137512057F2A025B
:0209A00008FA53
:100956008F21E4FFFEA20F92B1E52125E0F521D219
:10096600B25321FEA2B0E4334221C2B20FBF00014E
:090976000EEF64084E70DEAF21A3
:01097F002255
:1009B800C2B3120956AC07AF05120956D2B3AF0439
:0109C800220C
:0608FA008B0F8A1089112A
:10090000C2B3120956AD07E4FCECC395125015AB07
:100910000FAA10A9118C82758300120929FF1209F0
:08092000560C80E5D2B3AF05CF
:0109280022AC
:06088C008B0A8A0B890CA7
:100892001209F8C2B47DFF7FE11209B8E4FD7F209E
:1008A2001209B80D7F211209B87F221209B87D03FF
:1008B2007F231209B87D1A7F241209B87D6E7F2525
:1008C2001209B87D067F261209B87D0E7F20120913
:1008D200B8AB0AAA0BA90C7512017FA01208FAD2B2
:1008E200B41209C9C2B41209E53004037F002230F0
:0708F20005037F0122AF0D99
:0108F90022DC
:0C09D800C2B3120956E4FF120956D2B354
:0109E40022F0
:1009A200E4F5A01209807508017B007A007908122B
:0609B200088C8F0980F0A3
:03000000020800F3
:0C080000787FE4F6D8FD758121020847DE
:10092900BB010CE58229F582E5833AF583E0225083
:1009390006E92582F8E622BBFE06E92582F8E222CD
:0D094900E58229F582E5833AF583E49322E7
:10080C000209A2E493A3F8E493A34003F68001F257
:10081C0008DFF48029E493A3F85407240CC8C333ED
:10082C00C4540F4420C8834004F456800146F6DFBC
:10083C00E4800B01020408102040809009F0E47E53
:10084C00019360BCA3FF543F30E509541FFEE493B1
:10085C00A360010ECF54C025E060A840B8E493A378
:10086C00FAE493A3F8E493A3C8C582C8CAC583CAA3
:10087C00F0A3C8C582C8CAC583CADFE9DEE780BE5B
:0109F70000FF
:00000001FF
