:0A0A4D00120A577F21120A1F80FED3
:100A0600EF4E60147D737C00ED1D70011CED4C7083
:080A1600F7EF1F70EB1E80E8F2
:010A1E0022B5
:080925008F1B8E1A8D198C182E
:10092D00900000AF82AE83EE3395E0FDFCAB1BAAC9
:10093D001AA919A818D312090F4012758CFC758AC3
:0D094D0018D28C308DFDC28CC28DA380D6D7
:01095A00227A
:100A31001C1C0A0F081412001C1C0A0F08141200B7
:1009EA008FA0D2927F017E007D007C00120925C271
:0C09FA00927F017E007D007C0002092538
:070A6100C290C2910209EAF4
:100A1F00D290C2911209EA7F017E007D007C000214
:020A2F00092597
:1009C7008B1C8A1D891EAB1CAA1DA91E1208F6FFC7
:1009D7006010120A1F7401251EF51EE4351DF51D52
:0309E70080E42287
:0A0A57007F38120A617F0E020A6167
:050A68007F02020A619B
:10095B0078087C007D007BFF7A0A79317E007F0866
:10096B001208D07F40120A617B007A0079081209C5
:10097B00C77FC1120A61E4FF120A1F7F327E007D1E
:06098B00007C00020925BA
:1009910078107C007D007BFF7A0A79397E007F0820
:1009A1001208D07F48120A617B007A00791012097F
:1009B100C77FC0120A61E4FF120A1F7F327E007DE9
:0609C100007C0002092584
:03000000020A41B0
:0C0A4100787FE4F6D8FD75811E020A4D96
:10080000E709F608DFFA8046E709F208DFFA803EDA
:1008100088828C83E709F0A3DFFA8032E309F608C7
:10082000DFFA8078E309F208DFFA807088828C832F
:10083000E309F0A3DFFA806489828A83E0A3F608E3
:10084000DFFA805889828A83E0A3F208DFFA804CBD
:1008500080D280FA80C680D4806980F28033801094
:1008600080A680EA809A80A880DA80E280CA8033FD
:1008700089828A83ECFAE493A3C8C582C8CCC58375
:10088000CCF0A3C8C582C8CCC583CCDFE9DEE78045
:100890000D89828A83E493A3F608DFF9ECFAA9F0C4
:1008A000EDFB2289828A83ECFAE0A3C8C582C8CC1A
:1008B000C583CCF0A3C8C582C8CCC583CCDFEADE33
:1008C000E880DB89828A83E493A3F208DFF980CC95
:1008D00088F0EF60010E4E60C388F0ED2402B4048E
:1008E0000050B9F582EB2402B4040050AF23234535
:0608F00082239008507302
:1008F600BB010689828A83E0225002E722BBFE0200
:09090600E32289828A83E4932232
:10090F00EB9FF5F0EA9E42F0E99D42F0EC6480C85F
:06091F0064809845F022FF
:00000001FF
