:100FD2007F647E001210E2120EF212117012117A68
:100FE20012117F7F41120E557F647E007D007C00CE
:100FF20012101112117A12113E121166120C8B7F0D
:0F100200D07E077D007C0012101112117A80E75A
:0C114E0025642E2564006572726F72002B
:10113E00C2A07F147E007D007C00121011D2A0226E
:0A11660020A0FD30A0FD20A0FD2216
:100C8B00E4F558F559F556F557F554F555F552F574
:100C9B0053F550F551F54EF54FF54CF54DF54AF52D
:100CAB004BF554F55530A0FD1210FB74222555F869
:100CBB0030A00476018002E4F60555E55570020577
:100CCB0054C39428E5546480948040D9E4F554F5DA
:100CDB0055AE54AF557C007D08120B75AD07ED2555
:100CEB00E0244AF8C000E6FE08E625E0FFEE33D02C
:100CFB0000F608A607ED25E0244AF8E6FE08E6FF15
:100D0B0074222555F8E6FD3395E04EFAED4FFBAE18
:100D1B0054AF557C007D08120B75EF25E0244AF883
:100D2B00A60208A6030555E555700205546428452F
:100D3B0054709EE54B254DFFE54A354CFEE54F2F94
:100D4B00FFE54E3EFEE5512FFFE5503EFEEF6553AE
:100D5B007003EE6552704C7567FF75681175694EBF
:100D6B00854A6A854B6B854C6C854D6DFB7A00799A
:100D7B005A12085C7B007A00795A1210BF7567FF14
:100D8B0075681175694E854E6A854F6B85506C85FC
:100D9B00516D7B007A00795F12085C7B007A0079D9
:0C0DAB005F80067BFF7A1179541210BFA4
:010DB7002219
:10104A00E4FFFEFDFC30A0FDEF25E0FFEE33FE30AD
:10105A00A006EF4401FF800020A0FD0DBD00010C99
:09106A00ED64084C70DF020E5524
:100EF200C290C291C292C2A6C2A77F017E007D00AB
:100F02007C00121011D2A5D2A4D2927F017E007D64
:100F1200007C00121011C2927F017E007D007C00D5
:100F2200121011D2A5D2A4D2927F017E007D007C44
:100F320000121011C2927F017E007D007C0012100F
:100F420011D2A5D2A4D2927F017E007D007C001234
:100F52001011C2927F017E007D007C00121011D21E
:100F6200A5C2A4D2927F017E007D007C00121011E6
:0D0F7200C2927F017E007D007C0002101104
:100DB8008F22C290C2917F017E007D007C001210BC
:100DC80011E52230E704D2A78002C2A7E52230E667
:100DD80004D2A68002C2A6E52230E504D2A580028C
:100DE800C2A5E52230E404D2A48002C2A4D2927F34
:100DF800017E007D007C00121011C2927F017E00EE
:100E08007D007C00121011E52230E304D2A7800295
:100E1800C2A7E52230E204D2A68002C2A6E52230AB
:100E2800E104D2A58002C2A5E52230E004D2A48064
:100E380002C2A4D2927F017E007D007C00121011B4
:0D0E4800C2927F017E007D007C000210112F
:051170007F0C020DB828
:100F7F00D290C2917F017E007D007C00121011C2C1
:100F8F00A7D2A6C2A5C2A4D2927F017E007D007C0B
:100F9F0000121011C2927F017E007D007C001210A2
:100FAF0011D2A7C2A6C2A5C2A4D2927F017E007D94
:100FBF00007C00121011C2927F017E007D007C0028
:030FCF00021011FC
:100E55008F67D290C2917F017E007D007C001210C9
:100E650011E56730E704D2A78002C2A7E56730E63F
:100E750004D2A68002C2A6E56730E504D2A58002A9
:100E8500C2A5E56730E404D2A48002C2A4D2927F51
:100E9500017E007D007C00121011C2927F017E0050
:100EA5007D007C00121011E56730E304D2A78002B3
:100EB500C2A7E56730E204D2A68002C2A6E5673084
:100EC500E104D2A58002C2A5E56730E004D2A48082
:100ED50002C2A4D2927F017E007D007C0012101117
:0D0EE500C2927F017E007D007C0002101192
:1010BF008B648A658966AB64AA65A966120B5CFFAF
:1010CF006010120E5574012566F566E43565F565F9
:0310DF0080E42288
:10109A00EE7021EF14600E146010146012240370B5
:1010AA00137F1C800C7F18120DB87F14120DB87FA5
:0510BA0010120DB82228
:10112B007F037E0012109A7F08120E557F037E00FC
:03113B0002109A05
:051175007F20020E5571
:05117A007F01020DB829
:05117F007F02020DB823
:1010E200EF4E60147D737C00ED1D70011CED4C70A1
:0810F200F7EF1F70EB1E80E810
:0110FA0022D3
:081011008F6B8E6A8D698C68FB
:10101900758901900000AF82AE83EE3395E0FDFC47
:10102900AB6BAA6AA969A868D3120BAB4012758C7D
:10103900FC758A18D28C308DFDC28CC28DA380D6E6
:011049002284
:1010FB00758901758CFF758AE5758810E58830E573
:08110B00FB5388EF5388DF223B
:10111300758901758CFF758AE5758810E58830E55A
:08112300FB5388EF5388DF2223
:0300000002115A90
:0C115A00787FE4F6D8FD758177020FD293
:100B5C00BB010689828A83E0225002E722BBFE0297
:090B6C00E32289828A83E49322CA
:100B7500C2D5EC30E709B2D5E4C39DFDE49CFCEE9B
:100B850030E715B2D5E4C39FFFE49EFE120C00C307
:100B9500E49DFDE49CFC8003120C0030D507C3E402
:060BA5009FFFE49EFE220A
:100BAB00EB9FF5F0EA9E42F0E99D42F0EC6480C8C1
:060BBB0064809845F02261
:10080000E5732467F8E60573227864300702786799
:10081000E475F001120C55020B5C2000EB7F2ED228
:10082000008018EF540F2490D43440D4FF30040BD0
:10083000EF24BFB41A0050032461FFE57460021571
:10084000740577E5777002057630070D7864E475F6
:10085000F001120C55EF020BEE0210737403D20775
:100860008003E4C207F5738B648A658966E4F574D6
:10087000F576F577E57460077F2012083B80F57503
:1008800075FFC201C200C202C203C205C206C2088D
:10089000120809FF700D3007057F0012084CAF7772
:1008A000AE7622B4255FC2D5C204120809FF24D057
:1008B000B40A00501A75F00A787430D50508B6FFEE
:1008C0000106C6A426F620D5047002D20380D924DE
:1008D000CFB41A00EF5004C2E5D204020A4CD20190
:1008E00080C6D20080C0D20280BCD2D580BAD205E8
:1008F00080B47F2012083B2002077401B5740040C9
:10090000F1120800FF12083B020874D208D20680D8
:1009100095120800FB120800FA120800F94A4B7001
:1009200006791D7A0B7BFF20022EE574602A7E007B
:100930008E82758300120BC160060EEE657570F035
:10094000C2D5EBC0E0EAC0E0E9C0E0EE120A93D005
:10095000E0F9D0E0FAD0E0FB120B5CFF60AAEBC03C
:10096000E0EAC0E0E9C0E012083BD0E02401F9D0A1
:10097000E03400FAD0E0FBE5750460DCD575D98081
:10098000877BFF7A0A798FD202809C791080027966
:1009900008C206C2088008D2D5790A8004790AC242
:1009A000D5E575047002F575E4FAFDFEFF12080046
:1009B000FC7B08200113120800FD7B1030000A1296
:1009C0000800FE120800FF7B20EC3382D592D55040
:1009D00013C3E43000069FFFE49EFEE42001039D64
:1009E000FDE49CFCE4CBF8C201EC700CCFCECDCC86
:1009F000E824F8F870F38017C3EF33FFEE33FEED11
:100A000033FDEC33FCEB33FB994002FB0FD8E9EBF1
:100A1000300105F8D0E0C448B201C0E00AEC4D4E08
:100A20004F78207B0070C2EAB5750040BCC0E01270
:100A30000A95D0F0D0E0200104C4C0E0C4B201C0E7
:100A4000F0120824D0F0D5F0EB020874120C6509FE
:100A50001153098B5808E24C08DE42098F4F099761
:0F0A60004409974908F743099D550981460981C3
:100A6F00450981470B3D5008E62D08EA2E090D2B4D
:100A7F0008EE23090B200B262A08A64800000905BB
:100A8F003F3F3F00790AA2D5200314300509B91062
:100A9F00020404B9080104A2D52006025001042063
:100AAF0002689202B574005034C0E07F2030031901
:100ABF007F30A20272067205500F120AECC202C2F8
:100ACF0006C205C2087F30800F300503E9C0E0126F
:100ADF00083B300503D0E0F9D0E0B574CC300517F2
:100AEF007F30B9100C12083B7F583004077F788095
:100AFF0003B9080312083B3002057F2D02083B7F24
:100B0F00202008F87F2B2006F322920280CF286E38
:100B1F00756C6C2900D2011208003001F8C20178FF
:100B2F007430D50108F60208A62D50434958120813
:100B3F00002403B405004001E4900B389312082CF5
:0D0B4F00743A12082CD20375740402098B4D
:100BC100BB010CE58229F582E5833AF583E02250E9
:100BD10006E92582F8E622BBFE06E92582F8E22233
:0D0BE100E58229F582E5833AF583E493224D
:100BEE00BB010689828A83F0225002F722BBFE01E6
:020BFE00F322E0
:100C0000BC000BBE0029EF8DF084FFADF022E4CCD8
:100C1000F875F008EF2FFFEE33FEEC33FCEE9DECA1
:100C2000984005FCEE9DFE0FD5F0E9E4CEFD22EDE7
:100C3000F8F5F0EE8420D21CFEADF075F008EF2F31
:100C4000FFED33FD4007985006D5F0F222C398FD22
:050C50000FD5F0EA22BF
:100C5500FAE6FB0808E6F925F0F618E6CA3AF622A0
:100C6500D083D082F8E4937012740193700DA3A31E
:100C750093F8740193F5828883E473740293686032
:060C8500EFA3A3A380DF32
:10107300EFB40A07740D12107E740A309811A89900
:10108300B8130CC2983098FDA899C298B811F630DD
:0710930099FDC299F59922B5
:00000001FF
