:1008730048656C6C6F2053657269616C20506F72B0
:020883007400FF
:0F088500758920759850758DFD758BFDD28E226B
:0808A0008F993099FDC29922E5
:10086000120847FF600C1208A0740129F9E43AFA53
:0308700080EE22F5
:0808A8003098FDC298AF9922BF
:0F080000E4F5A01208857BFF7A0879731208606F
:10080F00D2A07FF47E0112082E7508007509FEAF85
:0D081F00091208A0C2A07FF47E0112082E6D
:02082C0080E169
:10082E00EF4E60147D737C00ED1D70011CED4C705D
:08083E00F7EF1F70EB1E80E8CC
:01084600228F
:030000000208945F
:0C089400787FE4F6D8FD75810A020800A8
:10084700BB010689828A83E0225002E722BBFE02AF
:09085700E32289828A83E49322E2
:00000001FF
