:03000000020EB835
:0C0EB800787FE4F6D8FD758149020B5CE0
:100E3A004572726F720048756D203D2025642E251B
:100E4A00640054656D203D2025642E25640043000E
:060E5A00256420202000A9
:100E9200758901758CB8758A0CD28C308DFDC28C27
:030EA200C28D22DC
:100EA500758901758CFF758AF1D28C308DFDC28CE8
:030EB500C28D22C9
:080ECE00C2A1120E92D2A12272
:0A0EC40020A1FD30A1FD20A1FD22B8
:100DE900E4FFFEFDFC30A1FD120EA5EF25E0FFEEAC
:100DF90033FE30A106EF4401FF800020A1FD0DBDA7
:090E090000010CED64084C70DCE2
:010E120022BD
:100B5C00120DBD120ECE120EC4120DE98E108F1195
:100B6C00120DE98E0C8F0D120DE98E0E8F0F120DDA
:100B7C00E98E0A8F0B120DE98E088F09E511250DF0
:100B8C00FFE510350CFEE50F2FFFE50E3EFEE50BE5
:100B9C002FFFE50A3EFEEF65097003EE6508600C59
:100BAC007BFF7A0E793AE4FDFF020C4C7539FF7528
:100BBC003A0E753B4085103C85113D850C3E850DEC
:100BCC003F7B007A00792212085C7B007A00792244
:100BDC00E4FDFF120D547539FF753A0E753B4C85CB
:100BEC000E3C850F3D850A3E850B3F7B007A0079D4
:100BFC002212085C7B007A007922E4FD7F01120D41
:100C0C00547FDF120E797BFF7A0E7958120D8D7E90
:100C1C00007F147D007B007A007922120C867539D6
:100C2C00FF753A0E753B5A85083C85093D7B007A69
:100C3C0000792212085C7B007A0079227D0D7F01FD
:0D0C4C00120D547F647E00120D34020B5F08
:100D1300C291D2927F017E00120D34C2920F120D46
:100D230034E9C454F0FFE590540F4FF590D2927F0D
:010D330001BE
:100D3400E4FDFCC3ED9FEC9E5015E4FBFA0BBB00F5
:0F0D4400010AEB64704A70F50DBD00010C80E4EC
:010D5300227D
:100E6000A907E954F0FFE590540F4FF590C2901296
:090E70000D13C2927F05020D343E
:100E7900A907E954F0FFE590540F4FF590D290126D
:090E89000D13C2927F05020D3425
:060D8D008B3B8A3C893D0E
:100D9300E4F53EF53FAB3BAA3CA93D853F82853E4A
:100DA30083120C59FFFD3395E04D600D120E79054A
:090DB3003FE53F70E0053E80DCE5
:010DBC002214
:100D54008F368D378B388A39893AEF3395E04F7067
:100D640008E537540F44808013AF36EF3395E0FE27
:100D7400EF64014E700AE537540F44C0FF120E6051
:090D8400AB38AA39A93A020D8D21
:100DBD007F147E00120D347F02120E607F28120EFA
:100DCD00607F0C120E607F06120E607F01120E60A6
:0C0DDD007F037E00120D347F80020E6048
:100C5900BB010CE58229F582E5833AF583E0225050
:100C690006E92582F8E622BBFE06E92582F8E2229A
:0D0C7900E58229F582E5833AF583E49322B4
:10080000E5452439F8E6054522783630070278397F
:10081000E475F001120CDD020CB22000EB7F2ED249
:10082000008018EF540F2490D43440D4FF30040BD0
:10083000EF24BFB41A0050032461FFE5466002159F
:10084000460549E5497002054830070D7836E475DC
:10085000F001120CDDEF020CCB020E137403D20771
:100860008003E4C207F5458B368A378938E4F546BC
:10087000F548F549E54660077F2012083B80F5758D
:1008800047FFC201C200C202C203C205C206C208BB
:10089000120809FF700D3007057F0012084CAF49A0
:1008A000AE4822B4255FC2D5C204120809FF24D085
:1008B000B40A00501A75F00A784630D50508B6FF1C
:1008C0000106C6A426F620D5047002D20380D924DE
:1008D000CFB41A00EF5004C2E5D204020A4CD20190
:1008E00080C6D20080C0D20280BCD2D580BAD205E8
:1008F00080B47F2012083B2002077401B5460040F7
:10090000F1120800FF12083B020874D208D20680D8
:1009100095120800FB120800FA120800F94A4B7001
:1009200006791D7A0B7BFF20022EE546602A7E00A9
:100930008E82758300120C5960060EEE654770F0CA
:10094000C2D5EBC0E0EAC0E0E9C0E0EE120A93D005
:10095000E0F9D0E0FAD0E0FB120CB2FF60AAEBC0E5
:10096000E0EAC0E0E9C0E012083BD0E02401F9D0A1
:10097000E03400FAD0E0FBE5470460DCD547D980DD
:10098000877BFF7A0A798FD202809C791080027966
:1009900008C206C2088008D2D5790A8004790AC242
:1009A000D5E547047002F547E4FAFDFEFF120800A2
:1009B000FC7B08200113120800FD7B1030000A1296
:1009C0000800FE120800FF7B20EC3382D592D55040
:1009D00013C3E43000069FFFE49EFEE42001039D64
:1009E000FDE49CFCE4CBF8C201EC700CCFCECDCC86
:1009F000E824F8F870F38017C3EF33FFEE33FEED11
:100A000033FDEC33FCEB33FB994002FB0FD8E9EBF1
:100A1000300105F8D0E0C448B201C0E00AEC4D4E08
:100A20004F78207B0070C2EAB5470040BCC0E0129E
:100A30000A95D0F0D0E0200104C4C0E0C4B201C0E7
:100A4000F0120824D0F0D5F0EB020874120CED0976
:100A50001153098B5808E24C08DE42098F4F099761
:0F0A60004409974908F743099D550981460981C3
:100A6F00450981470B3D5008E62D08EA2E090D2B4D
:100A7F0008EE23090B200B262A08A64800000905BB
:100A8F003F3F3F00790AA2D5200314300509B91062
:100A9F00020404B9080104A2D52006025001042063
:100AAF0002689202B546005034C0E07F203003192F
:100ABF007F30A20272067205500F120AECC202C2F8
:100ACF0006C205C2087F30800F300503E9C0E0126F
:100ADF00083B300503D0E0F9D0E0B546CC30051720
:100AEF007F30B9100C12083B7F583004077F788095
:100AFF0003B9080312083B3002057F2D02083B7F24
:100B0F00202008F87F2B2006F322920280CF286E38
:100B1F00756C6C2900D2011208003001F8C20178FF
:100B2F004630D50108F60208A62D50434958120841
:100B3F00002403B405004001E4900B389312082CF5
:0D0B4F00743A12082CD20375460402098B7B
:100C8600EF4E6012EF60010EEDBB010B89828A8385
:100C9600F0A3DFFCDEFA2289F05007F709DFFCA992
:0C0CA600F022BBFEFCF309DFFCA9F022E9
:100CB200BB010689828A83E0225002E722BBFE0240
:090CC200E32289828A83E4932273
:100CCB00BB010689828A83F0225002F722BBFE0108
:020CDB00F32202
:100CDD00FAE6FB0808E6F925F0F618E6CA3AF62218
:100CED00D083D082F8E4937012740193700DA3A396
:100CFD0093F8740193F5828883E4737402936860AA
:060D0D00EFA3A3A380DFA9
:100E1300EFB40A07740D120E1E740A309811A899C4
:100E2300B8130CC2983098FDA899C298B811F6303F
:070E330099FDC299F5992217
:00000001FF
