:1009710000100018001C001E001E001C00180010B2
:10098100000000000000000E000E0000000000004A
:100991000000000E001F001F001F001F000E0000BE
:1009A10000000004000E000E000E00040000000014
:1009B1000000000000000000000000000000000036
:100ADC008FA0C291D2927F027E007D007C00120A10
:040AEC004AC2922246
:050B0700D290020ADC9F
:050B0C00C290020ADCAA
:100AA5007F01120B0C7F02120B0C7F06120B0C7FC1
:0E0AB50080120B0C7F0C120B0C7F38020B0C06
:100A0F007F40120B0CE4F51CAF1CEF3395E0FEC3D7
:100A1F00EF9420EE64809480501CEF25E0FFEE33BE
:100A2F00FE74712FF58274093EF583740193FF12E2
:0B0A3F000B07051C80D27FC0020B0CCF
:100A80008B218A228923AB21AA22A9231208006084
:100A9000130523E5237002052214F9120800FF1242
:050AA0000B0780E222BB
:0408F9008E088F09CD
:1008FD00E4F514E509450870057F30020B07C3E5E3
:10090D00086480948050107F2D120B07C3E4950965
:10091D00F509E49508F508E5094508602AAE08AF24
:10092D00097C007D0A120858ED2430FFAE14051421
:10093D00740A2EF8A607AE08AF097C007D0A1208CE
:10094D00588E088F0980D01514AF14EF3395E0C37E
:10095D0064809480400D740A2FF8E6FF120B071582
:03096D001480E60D
:010970002264
:0609C1008B158A16891750
:1009C700E4F518F519F51AF51BAB15AA16A917853D
:1009D7001B82851A831208196029FB3395E0FAAE4A
:1009E70018AF197C007D0A120846EF2BFFEE3ACFAD
:1009F70024D0F519EF34FFF518051BE51B70CA0560
:070A07001A80C6AE18AF19FA
:010A0E0022C5
:0B0AFC00E4F590F5A0120AA5020A0F15
:100AC300EF4E60147D737C00ED1D70011CED4C70C6
:080AD300F7EF1F70EB1E80E835
:010ADB0022F8
:080A4A008F208E1F8D1E8C1DF4
:100A5200900000AF82AE83EE3395E0FDFCAB20AA9E
:100A62001FA91EA81DD312088E4012758CFC758A10
:0D0A720018D28C308DFDC28CC28DA380D6B1
:010A7F002254
:03000000020AF001
:0C0AF000787FE4F6D8FD758123020AFC33
:10080000BB010689828A83E0225002E722BBFE02F6
:09081000E32289828A83E4932229
:10081900BB010CE58229F582E5833AF583E0225094
:1008290006E92582F8E622BBFE06E92582F8E222DE
:0D083900E58229F582E5833AF583E49322F8
:10084600EF8DF0A4A8F0CF8CF0A428CE8DF0A42EC6
:02085600FE2280
:10085800C2D5EC30E709B2D5E4C39DFDE49CFCEEBB
:1008680030E715B2D5E4C39FFFE49EFE1208A4C387
:10087800E49DFDE49CFC80031208A430D507C3E482
:060888009FFFE49EFE222A
:10088E00EB9FF5F0EA9E42F0E99D42F0EC6480C8E1
:06089E0064809845F02281
:1008A400BC000BBE0029EF8DF084FFADF022E4CC38
:1008B400F875F008EF2FFFEE33FEEC33FCEE9DEC01
:1008C400984005FCEE9DFE0FD5F0E9E4CEFD22ED47
:1008D400F8F5F0EE8420D21CFEADF075F008EF2F91
:1008E400FFED33FD4007985006D5F0F222C398FD82
:0508F4000FD5F0EA221F
:00000001FF
