:070A00000508696E746572C0
:0F09D900000000000000000000000000000022ED
:0B09F500E4F5207F071209E88F2022A4
:070A08007D707F270209C881
:10088C00C2B4D2B3C2B2C2B47DFF7FE21209C87D3A
:10089C000F7F201209C87D017F211209C87D037FBB
:1008AC00231209C87D6E7F251209C87D067F26128A
:1008BC0009C87D017F221209C87B007A007908756E
:1008CC0013057F2A1208DD7D017F311209C8D2B4CD
:0108DC0022F9
:100965008F21E4FFFEA20F92B1E52125E0F521D20A
:10097500B25321FEA2B0E4334221C2B20FBF00013F
:090985000EEF64084E70DEAF2194
:01098E002246
:1009C800C2B3120965AC07AF05120965D2B3AF040B
:0109D80022FC
:0608DD008B108A11891244
:1008E300C2B3120965AD07E4FCECC395135015AB15
:1008F30010AA11A9128C8275830012090CFF120928
:08090300650C80E5D2B3AF05DD
:01090B0022C9
:0C09E800C2B3120965E4FF120965D2B326
:0109F40022E0
:10098F00C2B31209658F0FE4FCECC39D500EE4FF58
:10099F00120965740D2CF8A6070C80ED740D2CF858
:0409AF00E4F6D2B3E5
:0109B3002221
:100939007DFF7FE21209C81209F53006FA30061B5D
:10094900120A081209F5AF20EF70107D017F6112BC
:0C095900098F1209D97B007A00790D2269
:1009B400E4F5A012088C120939E964014A70F7754C
:0409C400A0FF80F21E
:03000000020800F3
:0C080000787FE4F6D8FD758121020847DE
:10090C00BB010CE58229F582E5833AF583E02250A0
:10091C0006E92582F8E622BBFE06E92582F8E222EA
:0D092C00E58229F582E5833AF583E4932204
:10080C000209B4E493A3F8E493A34003F68001F245
:10081C0008DFF48029E493A3F85407240CC8C333ED
:10082C00C4540F4420C8834004F456800146F6DFBC
:10083C00E4800B0102040810204080900A00E47E42
:10084C00019360BCA3FF543F30E509541FFEE493B1
:10085C00A360010ECF54C025E060A840B8E493A378
:10086C00FAE493A3F8E493A3C8C582C8CAC583CAA3
:10087C00F0A3C8C582C8CAC583CADFE9DEE780BE5B
:010A070000EE
:00000001FF
