:060B190048454C4C4F0062
:100AC700E4F5A0F59012093A120B1F120B29120B2D
:0A0AD7002E7BFF7A0B7919020AA4A6
:100AE100EF4E60147D737C00ED1D70011CED4C70A8
:080AF100F7EF1F70EB1E80E817
:010AF90022DA
:080A1A008F118E108D0F8C0E60
:100A2200900000AF82AE83EE3395E0FDFCAB11AADD
:100A320010A90FA80ED3120A694012758CFC758A90
:0D0A420018D28C308DFDC28CC28DA380D6E1
:010A4F002284
:10093A00C290C291C292C2A6C2A77F017E007D0068
:10094A007C00120A1AD2A5D2A4D2927F017E007D1F
:10095A00007C00120A1AC2927F017E007D007C0090
:10096A00120A1AD2A5D2A4D2927F017E007D007CFF
:10097A0000120A1AC2927F017E007D007C00120AD0
:10098A001AD2A5D2A4D2927F017E007D007C0012E9
:10099A000A1AC2927F017E007D007C00120A1AD2D6
:1009AA00A5C2A4D2927F017E007D007C00120A1AA1
:0D09BA00C2927F017E007D007C00020A1ABF
:100800008F0AC290C2917F017E007D007C00120A97
:100810001AE50A30E704D2A78002C2A7E50A30E64B
:1008200004D2A68002C2A6E50A30E504D2A5800261
:10083000C2A5E50A30E404D2A48002C2A4D2927F09
:10084000017E007D007C00120A1AC2927F017E00A8
:100850007D007C00120A1AE50A30E304D2A7800268
:10086000C2A7E50A30E204D2A68002C2A6E50A3099
:10087000E104D2A58002C2A5E50A30E004D2A4803A
:1008800002C2A4D2927F017E007D007C00120A1A6F
:0D089000C2927F017E007D007C00020A1AEA
:050B1F007F0C0208003C
:1009C700D290C2917F017E007D007C00120A1AC27C
:1009D700A7D2A6C2A5C2A4D2927F017E007D007CC9
:1009E70000120A1AC2927F017E007D007C00120A63
:1009F7001AD2A7C2A6C2A5C2A4D2927F017E007D49
:100A0700007C00120A1AC2927F017E007D007C00E2
:030A1700020A1AB6
:10089D008F0DD290C2917F017E007D007C00120AE7
:1008AD001AE50D30E704D2A78002C2A7E50D30E6A8
:1008BD0004D2A68002C2A6E50D30E504D2A58002C1
:1008CD00C2A5E50D30E404D2A48002C2A4D2927F69
:1008DD00017E007D007C00120A1AC2927F017E000B
:1008ED007D007C00120A1AE50D30E304D2A78002C8
:1008FD00C2A7E50D30E204D2A68002C2A6E50D30F6
:10090D00E104D2A58002C2A5E50D30E004D2A48099
:10091D0002C2A4D2927F017E007D007C00120A1AD1
:0D092D00C2927F017E007D007C00020A1A4C
:100AA4008B0A8A0B890CAB0AAA0BA90C120A50FFF9
:100AB400601012089D7401250CF50CE4350BF50B40
:030AC40080E422A9
:100A7F00EE7021EF14600E146010146012240370D6
:100A8F00137F1C800C7F181208007F141208007F40
:050A9F00101208002206
:100AFA007F037E00120A7F7F0812089D7F037E0013
:030B0A00020A7F5D
:050B24007F2002089D86
:050B29007F010208003D
:050B2E007F0202080037
:03000000020B0DE3
:0C0B0D00787FE4F6D8FD758111020AC75C
:100A5000BB010689828A83E0225002E722BBFE02A4
:090A6000E32289828A83E49322D7
:100A6900EB9FF5F0EA9E42F0E99D42F0EC6480C804
:060A790064809845F022A4
:00000001FF
